:1000000008020020AD1E0000C91E0000CD1E000029
:10001000D11E0000D51E0000D91E00000000000007
:10002000000000000000000000000000DD1E0000D5
:10003000E11E000000000000E51E0000991E000007
:10004000991E0000991E0000991E0000991E0000D4
:10005000991E0000811E0000991E0000991E0000DC
:10006000991E0000991E0000991E0000991E0000B4
:10007000991E0000991E0000991E0000991E0000A4
:10008000991E0000991E0000991E0000991E000094
:10009000991E0000991E0000991E0000991E000084
:1000A000991E0000991E0000991E0000FFFFFFFF2F
:1000B000FFFFFFFFFFFFFFFFFFFFFFFFFFFFFFFF50
:1000C000004800473917000000480047110E0000A3
:1000D0002DE9F8434FEA4008DFF81C05DFF81C75EE
:1000E000DFF81C554FF4006606608020386000245D
:1000F0007C604A20F860A1464FF4FA60386278626A
:100100000120B8610520786000F0E7FA0146DFF8C9
:10011000F4040068C0F3C02080B1DFF8EC0406608E
:10012000287840F0C00028707A69900706D5DFF87B
:10013000DC24641C4E20A045106007D3C807E3D41C
:100140000020786038604846BDE8F2834FF08709A8
:10015000F6E710B5DFF8B8044FF060410160002009
:1001600000F028F900F098F800F07DF8AB2000F0DE
:1001700059F900F07AF8002000F01CF900F08CF832
:1001800000F071F89F2000F04DF90021082000F0E8
:1001900024F900F05CF9044600F067F8EF2C01D078
:1001A000052010BD002010BD80B500F094FA00F0CD
:1001B0008BFA00F08EFA062000F034F900F087FA8E
:1001C00000F08BFA800701D4062002BD002002BD9A
:1001D00010B50446FFF7E8FF88B900F0EBF800F02F
:1001E0003FF800F040F8240304F1005000F01AF941
:1001F00000F03BF8BDE810404FF4C87068E710BD50
:1002000010B50446FFF7D0FF88B900F0D3F800F02E
:1002100027F800F028F8E40304F1A44000F002F904
:1002200000F023F8BDE810404FF4487050E710BDCF
:1002300010B50446FFF7B8FF88B900F0BBF800F02E
:100240000FF800F010F8240404F1584000F0EAF828
:1002500000F00BF8BDE810404FF47A7038E710BD9D
:1002600001212020B9E0002096E0012094E080B533
:10027000FFF79AFF78B900F09DF800F00DF8FFF74E
:10028000F2FFC72000F0CEF8FFF7EFFFBDE8024015
:100290004FF4FA601CE702BD012108209DE010B573
:1002A0000320FFF7C5FFA0B90220FFF7C1FF80B907
:1002B0000120FFF7BDFF60B90120FFF7A1FF40B9A2
:1002C00007242046FFF784FF18B9641EE4B2032C0C
:1002D000F7D210BD2DE9F0470F31030A090982B0AA
:1002E00014464FF0000A4FEA03284FEA0119C94D9E
:1002F000C94ECA4F03E008F580780AF5807ACA45EE
:1003000048D2FFF751FF002844D100F053F8FFF71F
:10031000A7FFFFF7A8FF08F1485000F083F801207D
:1003200000F048F8FFF79CFF386940F4403038612E
:100330003968009100980F30009000983860A9EB60
:100340000A00B0F5807F88BF4FF48070002118E06C
:100350003268D302FCD523682B6062682A60A268E9
:100360002A60E2682A601034009A42F480423A60BF
:10037000009B3B6032685302FCD54FF4C0033360EE
:1003800010318142E4D3FFF770FF0120FFF7A0FE98
:100390000028B0D0BDE8F687A14981B00A68009274
:1003A0000028009806BF4008400040F001000860A7
:1003B00001B070479A4928B13E2088600020C8608B
:1003C0003F2006E031200860062088600020C860D9
:1003D0003720486000208863704718B5914A802311
:1003E00013600124402313600029136800931460F4
:1003F0000CBF42F6010142F2014151604FF440014D
:1004000091600321D1602028146108BF864807D07D
:10041000182808BF854803D010280CBF8448854899
:10042000506111BD7B4981B008607C480168009132
:10043000009A42F4804202600099016076480168A7
:100440004A02FCD54FF06012026001B0704781B0E3
:100450000020009006227148016941F48031016159
:1004600075494A6008228A6037220A6008224A6376
:1004700001680091009A42F4804202600099016094
:10048000654801684A06FCD54FF060120260614879
:100490000168009100980002000E01B07047F8B5A5
:1004A0000646154601F10F0400F02AF900F013F991
:1004B00001212020FFF791FF00F00BF906F1D64053
:1004C000FFF7B0FF5C4E0220706001210020B06099
:1004D00024093320306000F0F5F80020FFF7A2FF78
:1004E0000220706042F610013C20B06003203060B2
:1004F0003C207063514A4948464B00F078F800228E
:1005000011E046F6100606600160434E376817F0AA
:100510000F0FFBD000F00DF8103200F00AF800F0D9
:1005200008F800F006F8B2EB041FEAD3BDE8F24089
:10053000F2E01E6845F8046B7047F8B50F31090901
:10054000074614460D0100F0DBF800F0C4F8012165
:100550002020FFF742FF00F0BCF807F1D640FFF77C
:1005600061FF354F022000267860BE60332038607E
:1005700000F0AAF80020FFF755FF0220786042F64D
:1005800010013C20B860032038603C2078630023D1
:1005900022482A4A00F02BF81E4A01E0103410339A
:1005A000AB421ED246F61007076001601A4FD7F81B
:1005B00000C01CF00F0FFAD01768D4F800C0BC457B
:1005C00002BF1768D4F804C0BC4509D11768D4F835
:1005D00008C0BC4502BF1768D4F80CC0BC45DDD0CC
:1005E000012600F074F8300018BF0120F2BD016050
:1005F0004260134A0261704780E100E000420C4013
:10060000864E0F4000E200E080E200E004200F4050
:1006100054300F4000A1064000A2064004A006404E
:1006200000030C4000A0064000C400A000C40098D5
:1006300000C4009000C4008804030C400001C00006
:1006400000C403A038B5002400B1682400F045F8C8
:1006500000F06800844230D000F03DF800F034F83B
:1006600000F037F85020FFF7DDFE00F030F800F022
:1006700032F800F029F800F02CF83520FFF7D2FE10
:1006800000F01FF8FFF7E3FE054600F020F800F049
:1006900022F801211820FFF7A0FE00F01AF805EB60
:1006A000042505F58030FFF7BDFE00F010F800F0DE
:1006B00014F800F06800844201D1002032BD01200E
:1006C00032BD0021082088E60121082085E60120AE
:1006D00062E6002060E600206CE610B5FFF7FBFF45
:1006E000FFF7F2FFFFF7F5FF0520FFF79BFEFFF78F
:1006F000E8FFFFF7ACFE0446FFF7E9FF204610BD18
:1007000080B5FFF7E8FFFFF7DFFFFFF7E2FF042008
:10071000FFF788FEBDE8024001203DE62DE9F843E1
:10072000042000F08BFADFF8EC83404600F0F7FA83
:100730008146C9F3C01000285BD1C9F3801000289E
:10074000DFF8D4433CD1C9F380000028DFF8CC5354
:10075000DFF8CC63DFF8CC73C9F3400018D018B1D0
:10076000002100F07AF814E000F076F80120207003
:100770004FF48A70DFF8B02338800021318013787D
:10078000DFF8A8135843084400F58A70286000E099
:1007900020B14046BDE8F24300F0C5BA404600F043
:1007A000C2FA31883A88914254D229680870286880
:1007B000411C29603188491C3180BDE8F1434FE07C
:1007C000DFF86C53DFF86C63DFF86C73C9F38000FB
:1007D000B8B100F041F8C9F3400030BB01202070EF
:1007E0003988B1B9307828B9404600F09AFA00202B
:1007F00038802FE00FF2CC30286002203880307033
:1008000007E019F00A0F25D15FEAC97013D43888C0
:1008100058B129680978404600F083FA2868411CDD
:10082000296039884A1E3A8014E04046BDE8F44306
:10083000002100F076BA404600F06AFA30780228CB
:1008400008D100213170BD4801688908890041F054
:1008500004010160BDE8F1830121404600F01DBAAA
:100860002DE9F84FB048B14A0178DFF8D4B2B54B62
:100870009BF802E0DFF8D082AF4DAD4FDFF8CCA29D
:100880004FF48A7048431044009000F58A7CA448D5
:1008900006889BF801209BF80000022E40F20D1400
:1008A00067D1BCF80010AAF80010012906D10FF298
:1008B000F42038601E202880BDE8F18F022904D181
:1008C0000FF2B02038602D20F5E703290DD19949AA
:1008D000087810B900222A80EEE70FF2E82139608B
:1008E0000220944928800870E6E7052908BF0228FD
:1008F000E2D1BEF1010F03D0BEF1030F02D0DBE75E
:100900000020D8E798F80000DFF8449204FB00F1DB
:100910001944904B1B78461C082A06F0030602D0A7
:100920000E2A0ED01FE0834207D00622484600F070
:10093000FFF9C7F8009006240BE0C7F800900624E2
:1009400012E083420CD02246484600F0F1F9C7F885
:10095000009099F80500FF2806D088F8006003E0B1
:10096000C7F8009000E000247B482C800121017032
:10097000A2E7042E1AD10420AAF800009CF8030074
:100980008BF8000001289CF8021001F00F02C1F35F
:1009900001118BF801208BF802108DD16549087088
:1009A00066480168C908C900016085E7052E83DB38
:1009B000BAF800B0DFF8A4A1BBF1050F40F07B80CE
:1009C000BCF80250AD1CAE4208BF0328EDD1002098
:1009D0000AF80100BEF1030F08BF072AE5D100980D
:1009E0001AF801105E4D084400F219110878497890
:1009F000072809D15B4F4C4E00223A70327088F8BC
:100A00000020544F3A702A70524F3A7898F800609C
:100A1000571CFFB2042F08BF0027B742C5D054436C
:100A20001A1906231370117100235370FF21082334
:100A30009370D07051712C784B49631C152803F0CA
:100A4000030331D8DFE800F01315172721233025E1
:100A500030303030303030190B0D0F11292B0D2074
:100A60001EE011201CE00F201AE0102018E00220E8
:100A700016E0032014E0042012E00B201070012087
:100A800050700E2090700C200AE003200DE04520ED
:100A90000BE0062009E0052002E0122000E0132010
:100AA000087000F025F802E0A02050711C4629488B
:100AB0002C70077000E7BBF1040FFBD1022806D1B0
:100AC000062E04BFBCF804000528F3D111E7032863
:100AD000F0D1092EEEDBBCF80600B51FA84204BF1A
:100AE000BCF804000528E5D104250AF8015071E797
:100AF00030B50D481C4A017813781C4C1C4D6354CA
:100B000001246C540023491C137001F0030101708F
:100B100030BD000000000E40020D0020D00C00206F
:100B2000F80C0020F60C0020FC0C00201002002025
:100B3000CC0C0020FF0C0020F40C002000000C4026
:100B4000030D002074070020FD0C0020FA0C00208B
:100B5000B40B0020FE0C0020010D0020C80C00206A
:100B6000A80B0020C40C0020000D0020AC0B0020BE
:100B7000B00B00200600FF0902A101850715002621
:100B8000FF0075080900960901B102850809009562
:100B90000381020900B102850E0900960A01B10223
:100BA000C00000001E0000012D000200030006002E
:100BB00000000000040005006A056D01030000004C
:100BC0000000000000000000C0B205282F4B33D801
:100BD000DFE800F0030B131B232B187800F0F00064
:100BE000024342EA410119707047587800F0F00062
:100BF000024342EA410159707047987800F0F000D2
:100C0000024342EA410199707047D87800F0F00041
:100C1000024342EA4101D9707047187900F0F000B0
:100C2000024342EA410119717047587900F0F0001F
:100C3000024342EA4101597170470000C0B20528E1
:100C4000124921D8DFE800F003080D12171C0878BC
:100C500040F0C000087070474A7842F0C0024A7005
:100C60007047887840F0C00088707047C87840F0BE
:100C7000C000C8707047087940F0C0000871704724
:100C8000487940F0C0004871704700002080034060
:100C9000016841F080010160704710B51B4C43684A
:100CA000226803F0F803134301290CBF43F010033B
:100CB00003F0EF03436010BD30B50A78134D02F026
:100CC000FE02C260CA6843684C682A6003F01F03D2
:100CD00043EA441303F0F80391F908101343002981
:100CE00014BF43F0100303F0EF03436018210161C8
:100CF00030BD02210161012101614168CA07FCD5B3
:100D0000002002490860704700000000F00C00203D
:100D1000016901F0E00141F01801016170470069CB
:100D200002E081607047806800F0FF0070470000BB
:100D300062B38B0708D0521E11F8013B00F8013B4B
:100D400000F024808B07F6D1830740F0208000BF9D
:100D5000103A07D330B4B1E83810103AA0E8381090
:100D6000F9D230BC530724BFB1E80810A0E808103E
:100D700044BF51F8043B40F8043BD20724BF31F88C
:100D8000022B20F8022B44BF0B7803707047121F10
:100D900017D35B0009D151F8043B20F8023B1B0C30
:100DA000121F20F8023BF6D20BE051F8043B00F88A
:100DB000013B1B0A20F8023B1B0C121F00F8013BF1
:100DC000F3D238BF121D521E24BF11F8013B00F8A8
:100DD000013BF8D87047000001000AD4DFF858241E
:100DE000400952F8200001F01F01C84000F0010046
:100DF000704700207047010009D4012200F01F0055
:100E000002FA00F0DFF83424490942F82100704763
:100E100080B50020016881F3088872B6FFF799F960
:100E200000F0AFFA0120FFF70DFC00F00FF8BFF360
:100E30004F8FDFF80C14DFF80C040A6802F4E0624C
:100E400002430A60BFF34F8F00BFFDE7F0B5DFF844
:100E5000F8430FF2104604F582750120E87185B061
:100E60000020287300F043F9074606218028AF7060
:100E7000E97008D081281CBF822883284DD084289F
:100E800000F0C580872800F0D580882821D08B28E5
:100E900000F0D880E02806D0E12806D0E22808D06B
:100EA000E82804D0F6E00620F6E00320F4E0452030
:100EB000F2E042F22007387848B1FF2807D017F84F
:100EC000010B00F06EF942F230008742F3D10020AE
:100ED000E2E0684631461022FFF73AFF2F8100F02A
:100EE00006F9687300F000F900F0EEF8002840F011
:100EF0009780687B042803D38621E9708620CBE0A5
:100F0000062000F04EF9022000F0F3F8697B5DF84E
:100F10002110CE4800F02CFBC0E0812F2F8108BFAC
:100F2000042003D0822F0CBF02200820A87100F0FB
:100F3000DEF8A07000F0D8F8E07000F0D5F8287165
:100F400000F0D2F8287300F0CFF800F0C3F800F0FA
:100F500028F9E8780106DFD42979AA796788C800DA
:100F60006881082A287B07EB00472BD1221DC90086
:100F70003846FFF794FAA178E078697141186971F1
:100F8000002005E0221D6979125C51186971401C2E
:100F900000F08AF8F6D36879C043401C6871A078E5
:100FA00000F0FFF8E07800F0FCF8002005E0211DDB
:100FB000085C00F0F6F82888401C00F075F8F6D3BD
:100FC000687969E00020288103E000F090F800F0E3
:100FD00070F800F069F8F8D300F089F800F07AF8BA
:100FE000010625D4A879042808D12979221DC90031
:100FF0003846FFF7A2FAD8B1812018E02979221DDE
:10100000C9003846FFF766F990B182200FE02F81C2
:1010100000F06DF8A87300F067F800F055F808B11B
:10102000902038E0A87BFFF7D3F808B18420E8705F
:10103000E87831E000F0B5F8022000F05AF800201E
:10104000E8712FE02F81002003E000F050F800F05D
:1010500030F8288028880428F7DB00F048F800F0F2
:1010600033F808B19020E2E72079262804BF61799F
:101070006E2905D1A079492804BFE179302901D032
:101080008720D4E70020FFF7DDFAC0B20028CFD0D8
:101090008920CCE7A020E87000F083F8E8790028E8
:1010A0007FF4E0AE05B0F0BD2880698928888842C9
:1010B00070472A88211D8854221D28882989125C9E
:1010C00051182981401C704768712989401828816E
:1010D000C0B270476871298940182881C0B208B130
:1010E0009020E870E878704729894018288100200E
:1010F0002DE070B504465649564E4FF40060086026
:1011000080210025316075604A20F0604FF4FA605C
:10111000306270620120B0610520706011E00B2028
:10112000FFF75AFE0028FAD00B20FFF764FE4A4969
:101130000120086071698807F1D548494E20086090
:101140006D1CA542EBD300217160316070BD70B59C
:1011500082B006463D4C424D02E00720FFF74BFEB1
:101160003E4A4E21116030001CBF2878002801D073
:10117000FF2076BD0720FFF72FFE0028F0D0204685
:1011800000F0E2F98DF800009DF900000028E4D19C
:10119000204600F0C3F904460720FFF72CFEE0B21A
:1011A00076BD80B50146294800F0C2F902E02B4A1D
:1011B0004E2111600820FFF70FFE0028F7D0BDE890
:1011C0000240082017E680B50121402000F03CFADB
:1011D00002220021012000F07EFA012202210120DA
:1011E00000F053FA01220221012000F061FA0122ED
:1011F0000421012000F036FABDE808400422002155
:10120000012000F068BA10B5104C86B0204600F0FE
:10121000FFF84FF4964000900821002001910290C1
:10122000002130200391049005912046694600F08A
:10123000F4F806B010BD000000E200E080E200E03B
:101240000CED00E00400FA051002002000100E4032
:1012500080E100E000420C40D8D0E94304200F4078
:10126000020D0020004B00000096000000E100008D
:1012700000C201007CB572B6524800220270012102
:10128000012000F0E1F9504A504B002151608020CC
:101290009063586800F0FE005860186B40F0010041
:1012A0001863986B40F001009863182000BF401E3F
:1012B000FCD1474D474C2878A8B92879FF2804BFAE
:1012C0006979FF2909D0002804BF6979002904D071
:1012D000002804BF6979FF2905D11068010602D4EE
:1012E0001968C80741D5FFF76EFFFFF78CFF00F0C4
:1012F000D8FBFEF72EFF00F044F80121082000F093
:10130000A3F93020009000210191684600F04FFCC5
:1013100000F05BFC0120FFF795F962B62E4D2F4ED1
:101320000120FFF714FF86F806012978A1B9E0280B
:10133000F6D172B60620FFF734FFFFF787FDBFF343
:101340004F8F274927480A6802F4E06202430A6087
:10135000BFF34F8F00BFFDE720780028EFD0224A6F
:101360004E21116000F098FAF6E74FF440504168C2
:10137000A1606160006880F308880846804700200B
:1013800076BD1049194A0120087000211170002310
:10139000104A10700020164A1170164A1070164A32
:1013A0001170164A1070164A1170164A10700A4AC7
:1013B00011701549154A13540B54401C0428FADBCC
:1013C000704700000000002000000C4000010C40AD
:1013D000FCEF0300E40C0020020D002010020020AE
:1013E0000CED00E00400FA0504200F40000D002081
:1013F000010D0020C40C0020FC0C0020FD0C00207E
:10140000FE0C0020A80B0020B00B0020AC0B00202D
:10141000016841F00101016070472DE9F041074684
:101420000E46F968706801F0B0010143706901432C
:1014300041F00101F9600025F969B06801F0EF01A0
:10144000014341F00401F96147F29F70B96801401E
:10145000F0680143B960A84600F0C6FB00F0E5F86B
:10146000B1FBF2F13A68900748BF4900002040F212
:1014700079546422A8F1C803A34243D318B1802D44
:1014800002D2AD0000E002250B095A4333686B43DA
:10149000B2FBF3F8401CECE7401E000104F04004EE
:1014A00000F03000204303F00F031843386169B1A6
:1014B000C8F1640890444FEA08116420B1FBF0F0D1
:1014C00000B90120796900F00F007861B9693269CB
:1014D000102A41F0100008D0202A0AD1F86840F004
:1014E0002000F86001F0EF0007E0F96801F0DF018B
:1014F00002E0F96841F02001F96000F0FE00B861F7
:10150000BDE8F081B8FBF2F33C695A43B8EB020145
:101510000CBF24F0400444F04004BDE70146886855
:101520004968400000F4807001F0FF0108437047F3
:10153000C2684B0802F07F0203F080031A43C260C6
:1015400001F0FF014160704701460020896801F009
:101550001C01042907D0082903D0102905D1012036
:101560007047022070470320704701B10420704784
:101570002DE9F04106468846F06800F0DF00F06093
:101580000027B06900F0EF00B061002400F02CFBF0
:1015900000F04BF8B1FBF2F0316800258A0748BF34
:1015A00040006421A5F1C80240F279539A4230D339
:1015B0001CB1802F02D2BF0000E002270209514374
:1015C00007FB08F2B1FBF2F5641CEAE7641E240194
:1015D00003F0400304F030041C4302F00F021443F4
:1015E000346160B1C5F164054D192D016420B5FB6E
:1015F000F0F000B90120716900F00F007061F0682F
:1016000040F02000F060B06940F01000B061BDE82B
:10161000F0816422B5FBF2F233695143681A0CBFC2
:1016200023F0400343F04003D0E70548054B016831
:101630001868000A012200F00F0082407047000085
:101640000802002008300F40054A136801290CBF2A
:10165000184323EA0000C0F309001060704700003F
:1016600050300F40FF2904D10FF2A40101EBC0015B
:1016700049780FF2880353F82000012A42680CBF12
:10168000114322EA010141607047FF2904D10FF2A2
:10169000800101EBC001C9790FF2600353F820000B
:1016A000012A826B0CBF114322EA0101816370475A
:1016B000FF2904D10FF2580101EBC00149790FF263
:1016C0003C0353F82000012AC26A0CBF114322EAEE
:1016D0000101C1627047FF2A05D10FF2340202EB0B
:1016E000C0020A4492780FF2140353F8200000EB72
:1016F000810081680A4382607047000000000C404E
:1017000000010C4000020C4000030C4000040C409F
:10171000FFFF3310FF0000FFFFFFDE38FFFFFFFF7A
:1017200003030303030303033F3F3F3D3F3F3F3FAB
:101730007F7F1F197F7F7F7F10B50020016881F3B5
:10174000088872B600F0DFF9DFF8F8130A68824201
:1017500018BF0860FEF7FDFCFFF713FE0120FEF73F
:1017600071FF62B6DFF8E04305E0DFF8E0034E21E9
:10177000016000F091F820780028F6D1BFF34F8F78
:10178000DFF8CC13DFF8CC030A6802F4E06202430E
:101790000A60BFF34F8F00BFFDE70146DFF8B803D3
:1017A000F0B50578DFF8B46328444FF48A72007905
:1017B0005543FF23002435442A18891E02F21B12C8
:1017C0000ED0491E01291BD909393BD0491E07D02B
:1017D000891E022904D9C91E34D0491E3BD050E0CD
:1017E000002146182E44491C96F814613419082922
:1017F000E4B2F6D350780419E4B2002C41D031E0C1
:101800001279D200002100F03EF8FCD311186E18B6
:1018100096F820110C19E4B224BB0C2106E04718FD
:101820002F44491C97F814713C19E4B289B202F1B3
:101830000C07B942F3D396F821010419E4B204B3BA
:1018400082231EE0002100F01EF8FCDB5079041911
:10185000E4B2B4B106E000F016F8FCDB50790419EC
:10186000E4B20CB181230CE01178262904BF507832
:101870006E2805D19178492904BFD078302800D04E
:1018800083231846F0BD46182E44491C96F814616F
:1018900034190C29E4B270472DE9F84FDFF8B892FB
:1018A000DFF8BCA299F8008046460AEB060000F576
:1018B00087652C78002C1CBF2879002818D00021BF
:1018C00029712046FFF769FFFF2840F20D1710D05D
:1018D0009AF834140AF105024F43491CD05500F020
:1018E000DAF8287008F1010000F0030089F8000020
:1018F000CFE04FF48A7809EB060E984D08FB06F10D
:10190000A61E6918112E01F5927201F21B1363D8FD
:10191000DFE806F00927275F62626262626246249E
:1019200062191121465B9EF80400084490F81B01DF
:10193000FEF74EFC50E09EF80400084490F81B01AE
:10194000FEF75EFC48E09EF80400084490F81B0196
:10195000FEF76EFC40E0FEF78AFC3DE0FEF79FFCE0
:101960003AE09EF8040038B918791E684FEAC00BB7
:1019700001F59070009004E05E68187A00924FEADA
:10198000C00B032C009A5946304606D1FEF7A2FC44
:10199000C1B209BB009A59463046FEF7CEFD1BE0A6
:1019A0009EF8040018B918681B79DB0004E0586839
:1019B0001B7ADB0001F59472122C08BF42F2200062
:1019C0001946FEF76CFD002006E00020FEF73AFE07
:1019D00002E05D490020087072B69AF834144F4353
:1019E0000AEB0702507199F800300AEB030494F8EF
:1019F00038740C2F18BF122F40D109F1040608FBD0
:101A000003F02D18F05C05F21F1728B9D5F81BE17B
:101A10003F7805F5927004E0D7F800E03F7905F5CE
:101A20009470C2F806E04FF0000C9772E64612F888
:101A30000E500EF1010E6544BEF10B0F5FFA85FCEE
:101A4000F5DB02F20B186FEA0C056D1C4FF0000C71
:101A500088F80050E64609E010F80E5002EB0E063A
:101A60000EF1010EF57265445FFA85FCBEEBC70FFF
:101A7000F2DB6FEA0C00401C88F80100491C00F002
:101A80000AF85B1C84F8380403F0030389F800307B
:101A900062B6BDE8F18F01F003018AF8341400202A
:101AA000704738B501212020FFF7CEFD00F01FF868
:101AB0002C4C2D4D00F027F82060002060600120A4
:101AC00020720020E0602846FFF7E2F82846FFF782
:101AD00010F921462846FFF7EFF824492020086036
:101AE0000122BDE8384003210420FFF76DB82048EB
:101AF000002141600C2101600F21816241600321BE
:101B00008160816370471B49486820F0200048606D
:101B1000086B20F020000863C86A40F02000C8620B
:101B2000886B40F020008863182000BF401EFCD165
:101B300008688206CA6A22F020024CBF1220B02038
:101B4000CA6270470C000E40E40C002004200F40D5
:101B50000CED00E00400FA05C40C00201002002087
:101B600074070020D40C002000000E4000E100E0CB
:101B700000000C4000040C40194B996802460120FB
:101B800029B9186800F0860002431A6000207047E7
:101B9000134B99680246012041B91868012A0CBF0D
:101BA00040F0020020F0020018600020704710B5DD
:101BB0000C4A11680446012031B92068FFF7DCFFA8
:101BC0006068FFF7E5FF002010BD054A916801201D
:101BD00021B9106840F080001060002070470000BC
:101BE00000200F4008200F4030B55C4A5C4B106865
:101BF000D569002110F4807014BF1C46594C05F0C3
:101C00000305032D09D19C4208D1D369564C1B0A08
:101C10001B02A34202D1554900E02146526802F05E
:101C20000702042A0ED8DFE802F00E0305070A00B7
:101C3000490808E0890806E020B1C90803E008B1B6
:101C4000090900E000214A48016030BD81B0002050
:101C5000009000900090474988680028FCD100223D
:101C60000A60086800065CBFB12048603B494A60D2
:101C70000120414A1060CA6AC2F31302CA62C86AEC
:101C800040F06250C8620A6842F002020A60C86A04
:101C900040F48070C862C86A40F00100C862C86A37
:101CA00000F00200009000980028F8D10A6842F481
:101CB00080720A60086800F40070009002E002F48C
:101CC0000072009200980A68B0F5007FF7D15208C0
:101CD00052000A60C86A244AC0F31300C862C86A86
:101CE00040F0C860C862C86920F00200C861C869D5
:101CF00040084000C861CA61C86A40F00100C8627B
:101D0000C86A00F00200009000980028F8D1CA6A62
:101D1000C2F31302CA620022C86A40F00360C862BC
:101D2000C86940F00100C8618A60C86A40F00100DB
:101D3000C862C86A00F00200009000980028F8D13C
:101D4000CA6942F00202CA61C86900F0040000904A
:101D500000980428F8D101B07047000004300F400B
:101D60000024F40000093D000010F0480048E8019C
:101D70000802002000200F4000C0084019E050F881
:101D8000042BD30744BFA9F101039A18091F0023AC
:101D9000042942F8043BF9D25FEA817C134604D55A
:101DA0004FF0000CA2F800C09B1CC90744BF0021E3
:101DB000197050F8041B0029E1D1704710B450F895
:101DC000041B79B10268436802440830DC0744BF51
:101DD000A9F10104E31852F8044B43F8044B091F1E
:101DE000F9D1ECE710BC704710B5074979441831B8
:101DF000064C7C44163404E00A68081D11448847E8
:101E00000146A142F8D110BD0800000030000000DA
:101E10006DFFFFFF0400000000000020F80A000032
:101E2000100200200000000095FFFFFF04000000EA
:101E3000B8000000080200200000000000F00BF8CD
:101E4000002801D0FFF7D0FF0020AFF30080FFF79C
:101E500011FA00F002F80120704700F001B800000C
:101E60000746384600F002F8FBE7000080B5AFF304
:101E70000080024A11001820ABBEFBE726000200DA
:101E800003480078002800F007800248004700005F
:101E9000000000201D070000EFF303803F210840F1
:101EA0008000014A80580047003000000148804708
:101EB000014800474D1C0000BD1E0000AFF300802C
:101EC000AFF30080FFF7BAFFFFF7FEBFFFF7FEBFDB
:101ED000FFF7FEBFFFF7FEBFFFF7FEBFFFF7FEBF36
:0C1EE000FFF7FEBFFFF7FEBF0048E8015F
:101EEC00FFFFFFFFFFFFFFFFFFFFFFFFFFFFFFFFF6
:101EFC00FFFFFFFFFFFFFFFFFFFFFFFFFFFFFFFFE6
:101F0C00FFFFFFFFFFFFFFFFFFFFFFFFFFFFFFFFD5
:101F1C00FFFFFFFFFFFFFFFFFFFFFFFFFFFFFFFFC5
:101F2C00FFFFFFFFFFFFFFFFFFFFFFFFFFFFFFFFB5
:101F3C00FFFFFFFFFFFFFFFFFFFFFFFFFFFFFFFFA5
:101F4C00FFFFFFFFFFFFFFFFFFFFFFFFFFFFFFFF95
:101F5C00FFFFFFFFFFFFFFFFFFFFFFFFFFFFFFFF85
:101F6C00FFFFFFFFFFFFFFFFFFFFFFFFFFFFFFFF75
:101F7C00FFFFFFFFFFFFFFFFFFFFFFFFFFFFFFFF65
:101F8C00FFFFFFFFFFFFFFFFFFFFFFFFFFFFFFFF55
:101F9C00FFFFFFFFFFFFFFFFFFFFFFFFFFFFFFFF45
:101FAC00FFFFFFFFFFFFFFFFFFFFFFFFFFFFFFFF35
:101FBC00FFFFFFFFFFFFFFFFFFFFFFFFFFFFFFFF25
:101FCC00FFFFFFFFFFFFFFFFFFFFFFFFFFFFFFFF15
:101FDC00FFFFFFFFFFFFFFFFFFFFFFFFFFFFFFFF05
:101FEC00FFFFFFFFFFFFFFFFFFFFFFFFFFFFFFFFF5
:101FFC00FFFFFFFFFFFFFFFFFFFFFFFFFFFFFFFFE5
:10200C00FFFFFFFFFFFFFFFFFFFFFFFFFFFFFFFFD4
:04201C00FFFFFFFFC4
:10202000535544452D31305730344D492D303341CF
:10203000FFFFFFFFFFFFFFFFFFFFFFFFFFFFFFFFB0
:10204000FFFFFFFFFFFFFFFFFFFFFFFFFFFFFFFFA0
:10205000FFFFFFFFFFFFFFFFFFFFFFFFFFFFFFFF90
:10206000FFFFFFFFFFFFFFFFFFFFFFFFFFFFFFFF80
:10300000080200202D810100A9810100AD8101008D
:103010008546010087460100894601000000000046
:10302000000000000000000000000000B18101006D
:10303000B581010000000000B98101004D4601008A
:10304000B3450100B5450100B7450100B945010090
:103050001D450100E9720100BF450100BD450100A9
:10306000BB450100C9450100294601004946010050
:103070004B460100694601006B4601006D460100A8
:103080006F4601007B4601007D4601007F4601003E
:103090008146010083460100754601007746010024
:0C30A000794601007146010073460100F2
:1030AC00FFFFFFFFFFFFFFFFFFFFFFFFFFFFFFFF24
:0430BC00FFFFFFFF14
:1030C00080B510F0E0F810F021FD064800780028E7
:1030D00001D1002005E003480078012801D113F058
:1030E0006FFE01BD460C0020E1500100580A0000AF
:1030F0003802002000010000001C00200000000039
:10310000095101000C0000003400000008020020FA
:103110000009FD000005F9000016FAFF010017F094
:10312000000748E801020019010100002DE9F047FD
:1031300000240020DFF86C1A0870DFF86C0A0078B1
:10314000002807D00020DFF8641A08700020DFF89C
:10315000601A0870DFF85C0A0078002800F0E78148
:10316000DFF8540A0078002840F0E181DFF83C0ADB
:10317000007801280BD0C0F09A81032800F09D80D0
:1031800034D3052800F09580C0F09B808FE1DFF8F4
:103190002C0A006830F00800DFF8201A08600220CE
:1031A000DFF8081A08700120DFF8141A0870DFF839
:1031B000140A0088DFF8101ADFF8042A127821F8C0
:1031C0001200DFF8080A0088DFF8041ADFF8F02997
:1031D000127821F81200DFF8FC090088DFF8F819EE
:1031E000DFF8DC29127821F812004EE2DFF8CC0972
:1031F000006850F00800DFF8C41908600120DFF80B
:10320000A81908700320DFF8A41908700220DFF85D
:10321000B0190870DFF8AC090088DFF8AC19DFF8E6
:10322000A029127821F81200DFF8A0090088DFF841
:10323000A019DFF88C29127821F81200DFF8940920
:103240000088DFF89419DFF87829127821F8120045
:10325000DFF87409B0F90410DFF86C09B0F9000068
:10326000091A09B2022091FBF0F0DFF8701908800A
:10327000DFF85C09B0F90410DFF85409B0F9000078
:10328000091A09B2022091FBF0F0DFF85419088006
:10329000DFF84409B0F90410DFF83C09B0F9000088
:1032A000091A09B2022091FBF0F0DFF83819088002
:1032B000EBE10020DFF8F81808700420DFF8EC18C4
:1032C0000870DFF8F808006850F00800DFF8EC1824
:1032D0000860DFF8EC080078022807DADFF8E00879
:1032E0000078401CDFF8D818087003E00020DFF8F1
:1032F000D0180870DFF8C8080078022804DBDFF86F
:10330000C0080078811E03E0DFF8B4080178491C8A
:10331000DFF8B0080088DFF8B028DFF8A4381B78A1
:1033200022F81300DFF8A4080088DFF8A428DFF8EB
:1033300090381B7822F81300DFF898080088DFF82F
:103340009828DFF87C381B7822F81300DFF878081B
:10335000DFF86C28127830F91220DFF86C08C9B257
:1033600030F91100121A12B2022092FBF0F0DFF8CD
:103370006C281080DFF85808DFF84428127830F9FC
:103380001220DFF84C08C9B230F91100121A12B23B
:10339000022092FBF0F0DFF848281080DFF82008C8
:1033A0000078002805D0DFF8180890F90000401ECA
:1033B00004E0DFF80C0890F90000801CDFF8082812
:1033C000DFF8FC371B7832F91330DFF8FC2740B206
:1033D00032F910209A1ADFF8F03740B233F9107042
:1033E000DFF8E437C9B233F91130FB1A1BB20B2BEB
:1033F00003DB12B212F5167F08DB1BB213F10A0FC2
:1034000018DA12B240F259239A4213DBDFF8AC27E4
:10341000126832F00802DFF8A4371A60DFF8C82714
:10342000126852F01002DFF8C0371A600022DFF88D
:103430007C371A70DFF89827DFF884371B7832F969
:103440001330DFF88C2740B232F910209A1ADFF8D7
:10345000803740B233F91000DFF87437C9B233F95E
:103460001130C31A1BB20B2B03DB12B212F5167FFD
:1034700008DB1BB213F10A0F18DA12B240F259201E
:10348000824213DBDFF83407006830F00800DFF811
:103490002C170860DFF85007006850F01000DFF8C4
:1034A000481708600020DFF804170870EDE00120DD
:1034B000DFF8F8160870DFF80407006830F008003D
:1034C000DFF8F81608600020DFF8F416087024E032
:1034D000DFF8F0060088DFF8F016DFF8E42612784F
:1034E00021F81200DFF8E4060088DFF8E416DFF8C0
:1034F000D026127821F81200DFF8D8060088DFF80D
:10350000D816DFF8BC26127821F81200DFF8B006D2
:103510000078401CDFF8A8160870DFF8A4060078D1
:103520000328D5DB0020DFF898160870ADE0DFF83F
:103530007C060078012808D0C0F09780032826D0A8
:1035400014D305286BD033D38FE0DFF87006006802
:1035500050F00800DFF8641608600020DFF88C16D1
:1035600008700020DFF8441608708EE0DFF84C0683
:10357000006850F00800DFF8441608600020DFF80B
:103580006C1608700020DFF8241608707DE0DFF864
:103590002C06006850F00800DFF8201608600020B4
:1035A000DFF8481608700020DFF8001608706CE09D
:1035B000DFF80806006850F00800DFF80016086021
:1035C0000020DFF8281608700520DFF8E0150870E5
:1035D000DFF81C060078C0071CD5DFF81806006865
:1035E000C0F30010002804D00F20DFF8C4150870C5
:1035F00014E0DFF800060068C0F34010002804D093
:103600000720DFF8AC15087008E00320DFF8A015EC
:10361000087003E00320DFF89815087035E0DFF844
:1036200090050078002813D0DFF884050078401E4C
:10363000DFF87C150870DFF88405006850F008009A
:10364000DFF8781508600020DFF8A01508700BE09F
:10365000DFF86805006830F00800DFF860150860E2
:103660000020DFF8481508700FE0DFF8500500680B
:1036700030F00800DFF8441508600020DFF830154E
:1036800008700020DFF824150870DFF820050078A6
:10369000012800F08582DFF814050078032840F047
:1036A0007C81DFF82005B0F80080DFF8200507886E
:1036B000DFF81005B0F80090DFF81005B0F800A0B2
:1036C000DFF81805B0F90000B9EBC009DFF8100504
:1036D000B0F90000BAEBC00ADFF81C05B0F9000031
:1036E00000F27360484540DBDFF80C05B0F90000DC
:1036F00000F27360404580F28480BAEB0700DFF887
:10370000F814B1F9001001F27361B1EB08014843FC
:10371000B9EB080190FBF1F03818DFF8E014B1F9CB
:10372000001011F5C261884210DBDFF8D014B1F946
:10373000001001F56851F031814207DBDFF8B81461
:10374000B1F9005005F2736506000124DFF890041A
:10375000B0F9000006F0E6FFDFF88014B1F90010C0
:10376000490081424DDA00244BE0DFF88C04B0F9C7
:10377000000000F5B6400D30814542DBDFF87804EB
:10378000B0F9000000F5B6400D30804539DABAEBEB
:103790000700DFF86414B1F9001001F5B6410D31EE
:1037A000B1EB08014843B9EB080190FBF1F0381880
:1037B000DFF84814B1F9001011F5C261884211DB3D
:1037C000DFF83814B1F9001001F56851F031814289
:1037D00008DBDFF82414B1F9005005F5B6450D35C6
:1037E00006000124DFF8F803B0F9000006F09AFFA4
:1037F000DFF8E813B1F9001049424900814200DACC
:10380000002464B2012C00F09280DFF8F003B0F9DC
:10381000000010F5C260504541DBDFF8E003B0F96D
:10382000000010F5C260B84280F28180B9EB08094F
:10383000DFF8C803B0F9000010F5C260C01B00FB40
:1038400009F9BAEB070A99FBFAF018EB0000DFF868
:10385000A813B1F9001001F27361884210DBDFF8A0
:103860009813B1F9001001F5B6410D31814207DB23
:103870000500DFF88803B0F9006016F5C266012480
:10388000DFF85803B0F9000006F04CFFDFF85013E2
:10389000B1F900104900814249DA002447E0DFF81D
:1038A0005C03B0F9000000F56850F03082453EDB63
:1038B000DFF84803B0F9000000F56850F0308742A7
:1038C00035DAB9EB0809DFF83403B0F9000000F588
:1038D0006850F030C01B00FB09F9BAEB070A99FBEE
:1038E000FAF018EB0000C449B1F9001001F273615D
:1038F00088420FDBC049B1F9001001F5B6410D3126
:10390000814207DB0500BD48B0F9006006F5685646
:10391000F0360124B148B0F9000006F003FFB049C9
:10392000B1F9001049424900814200DA0024DFF871
:103930002C0C0078C00700D4002464B2002C16D0F0
:10394000B5EB0808DFF8180CB8EB000842F20F706E
:10395000804514D2F71BDFF8080C3F1A42F20F70B3
:1039600087420CD2974805809848068007E0964821
:1039700000889449088096480088944908809248B5
:103980004088DFF8E01B088091484088DFF8D81BAA
:10399000088001208349087002E1844800780528E6
:1039A00040F0FE8088488649097830F811808848C0
:1039B0008349097830F811708848B0F9000018EB95
:1039C00040098748B0F9000017EB400A8A48B0F96F
:1039D000000000F2736048452CDB8748B0F9000016
:1039E00000F2736040455CDABAEB07008249B1F936
:1039F000001001F27361B1EB08014843B9EB080113
:103A000090FBF1F038187D49B1F9001011F5C26151
:103A1000884246DB7949B1F9001001F56851F0316F
:103A200081423EDB7449B1F9005005F2736506002E
:103A3000012436E07048B0F9000000F5B6400D30C2
:103A400081452EDB6C48B0F9000000F5B6400D3022
:103A5000804526DABAEB07006749B1F9001001F595
:103A6000B6410D31B1EB08014843B9EB080190FBB9
:103A7000F1F038186149B1F9001011F5C2618842BE
:103A80000FDB5E49B1F9001001F56851F031814258
:103A900007DB5949B1F9005005F5B6450D3506006B
:103AA000012464B2012C6ED05448B0F9000010F526
:103AB000C26050452EDB5148B0F9000010F5C260DD
:103AC000B84260DAB9EB08094C48B0F9000010F5CB
:103AD000C260C01B00FB09F9BAEB070799FBF7F0BE
:103AE00018EB000840464449B1F9001001F2736137
:103AF000884248DB4049B1F9001001F5B6410D316B
:103B0000814240DB05003D48B0F9006016F5C26611
:103B1000012438E03948B0F9000000F56850F03071
:103B2000824530DB3548B0F9000000F56850F030D0
:103B3000874228DAB9EB08093048B0F9000000F5EF
:103B40006850F030C01B00FB09F9BAEB070799FB7E
:103B5000F7F018EB000840462749B1F9001001F2D0
:103B6000736188420FDB2449B1F9001001F5B641B9
:103B70000D31814207DB05002048B0F9006006F5F1
:103B80006856F036012464B2012C09D10D48058035
:103B90000E4806801448006850F010001249086072
:103BA000BDE8F087740C0020200C0020720C00206F
:103BB000750C00201D0C0020550C0020BC040020BA
:103BC000730C00206C0B0020F80900206E0B002005
:103BD000000A00204A0B0020080A0020DE0B00200B
:103BE000E00B0020E20B0020DC0400202B0C002066
:103BF0003D0C0020B0040020FE0B0020000C002033
:103C00002DE9F04F85B0DFF864090088DFF860190E
:103C1000898C884212D3252000E0401E00B2122871
:103C20001CDBDFF848190988DFF8442900B202EBF1
:103C3000400232F8022C9142EFD30FE0002000E066
:103C4000401C00B2122809DADFF820190988DFF8D1
:103C5000202900B232F810209142F1D2DFF8141975
:103C60000988DFF81429D28B914212D31F2100E07A
:103C7000491E09B20F291CDBDFF8F8281288DFF88B
:103C8000F83809B203EB410333F8023C9A42EFD310
:103C90000FE0002100E0491C09B20F2909DADFF822
:103CA000D4281288DFF8D03809B233F811309A429C
:103CB000F1D200B2002813D10120DFF8B42800B2FD
:103CC00032F81030DFF8A82800B202EB400232F8D8
:103CD000022C9A1A13009BB25B089BB25B4231E044
:103CE00000B2252811D1401EDFF8842800B232F836
:103CF0001030DFF87C2800B202EB400232F8022CD0
:103D00009A1A13009BB25B081CE0DFF8642800B22B
:103D100032F81030DFF8582800B202EB400232F8D7
:103D2000022C9A1ADFF84438B3F90040DFF8403823
:103D300000B203EB400333F9023CE31A1400A4B2CF
:103D4000B3EB540309B2002913D10121DFF828484D
:103D500009B234F81150DFF8204809B204EB4104ED
:103D600034F8024C2C1B2500ADB26D08ADB26D428B
:103D700031E009B21F2911D1491EDFF8FC4709B211
:103D800034F81150DFF8F04709B204EB410434F87D
:103D9000024C2C1B2500ADB26D081CE0DFF8D847A3
:103DA00009B234F81150DFF8D04709B204EB4104EE
:103DB00034F8024C2C1BDFF8BC57B5F90060DFF873
:103DC000B85709B205EB410535F9025C751B2600B1
:103DD000B6B2B5EB5605DFF8A467B6F90060DFF8B8
:103DE000A077B7F90070BE421EDADFF89067B6F927
:103DF00000607642DFF88877B7F90070BE4209DAD2
:103E00000126DFF880A7DFF88077DFF880C7DFF8CA
:103E100080E727E00426DFF870A7DFF87877DFF87F
:103E200070C7DFF874E71DE0DFF85067B6F900608F
:103E30007642DFF84C77B7F90070BE4209DA032604
:103E4000DFF840A7DFF85477DFF840C7DFF850E726
:103E500008E00226DFF844A7DFF83877DFF840C72C
:103E6000DFF834E75FF0250808FB0108B8F1260801
:103E70001FFA88F81AF908901FFA88F80AEB080B5D
:103E80009BF901B0ADF804B01FFA88F80AEB080BF3
:103E90009BF925B0ADF810B01FFA88F8C2449AF922
:103EA00026B0ADF80EB01FFA88F817F908A01FFA6F
:103EB00088F807EB080B9BF901B0ADF802B01FFAC8
:103EC00088F807EB080B9BF925B01FFA88F84744E0
:103ED00097F92680ADF800801F2707FB0011B1F18C
:103EE00020081FFA88F81CF908001FFA88F80CEB64
:103EF000080191F91F70ADF80C701FFA88F80CEBEF
:103F0000080191F90170ADF80A701FFA88F80CEBFE
:103F1000080191F92010ADF808101FFA88F81EF971
:103F200008101FFA88F80EEB080797F91F701FFAA0
:103F300088F80EEB080C9CF901C01FFA88F8C644FB
:103F40009EF92080ADF80680F6B2012E03D0F6B2BD
:103F5000022E40F0C6800FFA89F9DFF82066B6F924
:103F6000006008360FFA8AFADFF810E6BEF900E0C2
:103F7000DEF1080E0EFB0AFA06FB09A95FEAC90684
:103F80005FF0200E96FBFEFEBDF90460DFF8EC85C5
:103F9000B8F9009019F10809BDF90280DFF8DCA535
:103FA000BAF900A0DAF1080A0AFB08F809FB06884A
:103FB0005FEAC8065FF0200896FBF8F8ADF80480C9
:103FC000BDF91060DFF8B485B8F9008018F1080871
:103FD0000FFA8BFBDFF8A495B9F90090D9F1080925
:103FE00009FB0BFB08FB06B6F6005FF0200896FB0A
:103FF000F8F8BDF90E60DFF88495B9F900A01AF160
:10400000080ABDF90090DFF874B5BBF900B0DBF128
:10401000080B0BFB09F90AFB06995FEAC9065FF07A
:10402000200996FBF9F9ADF8029000B2DFF84C6573
:10403000B6F90060083609B2DFF84095B9F900908A
:10404000D9F1080909FB01F106FB0010C00020218D
:1040500090FBF1F1ADF80010BDF90C00DFF81C1574
:10406000B1F9001008313FB2DFF81065B6F9006011
:10407000D6F10806774301FB0077F800202190FB7A
:10408000F1F0BDF90A10DFF8F464B6F90060083603
:104090000FFA8CFCDFF8E474B7F90070D7F1080769
:1040A00007FB0CFC06FB01CC5FEACC01202691FB50
:1040B000F6F1BDF90860DFF8C474B7F9007008378D
:1040C000BDF906C0DFF8B494B9F90090D9F1080938
:1040D00009FB0CFC07FB06C6F600202796FBF7FA47
:1040E000BFE00FFA89F9DFF89864B6F90060083686
:1040F0000FFA8AFADFF888E4BEF900E0DEF1080E74
:104100000EFB0AFA06FB09A95FEAC9065FF0200E5A
:1041100096FBFEFEBDF90460DFF86484B8F90090F8
:1041200019F10809BDF90280DFF854A4BAF900A01A
:10413000DAF1080A0AFB08F809FB06885FEAC806F4
:104140005FF0200896FBF8F8ADF80480BDF9106028
:10415000DFF82C84B8F9008018F108080FFA8BFBFF
:10416000DFF81C94B9F90090D9F1080909FB0BFBA1
:1041700008FB06B6F6005FF0200896FBF8F8BDF9DC
:104180000E60DFF8FC93B9F900A01AF1080ABDF936
:104190000090DFF8ECB3BBF900B0DBF1080B0BFBD0
:1041A00009F90AFB06995FEAC9065FF0200996FB48
:1041B000F9F9ADF8029000B2DFF8C463B6F9006017
:1041C000083609B2DFF8B893B9F90090D9F10809B7
:1041D00009FB01F106FB0010C000202190FBF1F16A
:1041E000ADF80010BDF90C00E549B1F90010083137
:1041F0003FB2E34EB6F90060D6F10806774301FB03
:104200000077F800202190FBF1F0BDF90A10DC4E98
:10421000B6F9006008360FFA8CFCD94FB7F9007078
:10422000D7F1080707FB0CFC06FB01CC5FEACC01C9
:10423000202691FBF6F1BDF90860D14FB7F9007067
:104240000837BDF906C0DFF83893B9F90090D9F105
:10425000080909FB0CFC07FB06C6F600202796FBA5
:10426000F7FA0FFA8EFEBDF9047017EB0E070FFA7E
:1042700088F818EB0707BDF90260F719042697FBC9
:10428000F6FCBDF9006000B2861909B28E190FFA6A
:104290008AFA1AEB0606042796FBF7F967464E469C
:1042A0001BB22DB215EB030BBBF1000F40F189805F
:1042B0001BB22DB2B3EB050ABAF1000F40D51BB209
:1042C0000FFA8CFC604600B210EB0C0C0FFA8EFE5D
:1042D000BCEB0E0C0FFA88F8BCEB080C0CFB03FCD3
:1042E00092B29CFBF2F0C7192DB20FFA88F80FFAC0
:1042F0008EFEB8EB0E0E0EFB05FEA4B29EFBF4F094
:10430000C7191BB20FFA89F9484600B210EB090928
:10431000BDF90000B9EB000909B2B9EB010909FBCD
:1043200003F992B299FBF2F086192DB209B2BDF9E8
:104330000000091A4D43A4B295FBF4F08619CAE0B7
:104340001BB2BDF904100FFA8EFEB1EB0E0101FB9A
:1043500003F192B291FBF2F1CF192DB20FFA8CFC5E
:10436000614609B211EB0C0C0FFA8EFEBCEB0E0E7F
:10437000BDF90410BEEB010E0EFB05FEA4B29EFBC0
:10438000F4F1CF191BB200B2BDF90010411A4B4332
:1043900092B293FBF2F18E192DB20FFA89F94946C8
:1043A00009B211EB0909BDF90010B9EB010900B21E
:1043B000B9EB000000FB05F0A4B290FBF4F0861905
:1043C00089E01BB22DB2B3EB050EBEF1010F41DB4C
:1043D0001BB2BDF904E0BDF9021011EB0E0E0FFA8D
:1043E0008CFCBEEB0C0E0FFA8CFCBEEB0C0C0CFB29
:1043F00003FC92B29CFBF2F1CF192DB2BDF902C0C1
:10440000BDF90410BCEB010C0CFB05FCA4B29CFB39
:10441000F4F1CF191BB200B20FFA8AFA1AEB0001BD
:104420000FFA89F9B1EB09010FFA89F9B1EB090922
:1044300009FB03F992B299FBF2F18E192DB20FFA32
:104440008AFA00B2BAEB00004543A4B295FBF4F03F
:10445000861940E01BB2BDF902000FFA88F8B0EBF4
:10446000080000FB03F092B290FBF2F0C7192DB2E6
:104470000FFA88F8BDF9020010EB08080FFA8CFC5F
:10448000B8EB0C080FFA8CFCB8EB0C0808FB05F82D
:10449000A4B298FBF4F0C7191BB20FFA8AFA09B25A
:1044A000BAEB0100434392B293FBF2F086192DB2AE
:1044B00009B20FFA8AFA1AEB01010FFA89F9B1EB86
:1044C00009010FFA89F9B1EB090101FB05F1A4B269
:1044D00091FBF4F086192948B0F9000006F022F9A2
:1044E00004002748B0F9000006F01CF9844214DAF1
:1044F0003FB22348B0F9000006F014F94743082002
:1045000097FBF0F736B21E48B0F9000006F00AF942
:104510004643082096FBF0F613E03FB21748B0F987
:10452000000006F0FFF84743082097FBF0F736B28B
:104530001248B0F9000006F0F5F84643082096FB53
:10454000F0F60A4800883F180848078009480088A4
:1045500036180848068005B0BDE8F08F3B0C0020F7
:1045600079ECFFFF100A0020180A00206C0B0020D5
:1045700082C501006E0B0020CCC50100C00B0020DD
:10458000BE0B0020F6D80100ECE1010071DD010056
:1045900067E6010000D001007BD401000AC70100DA
:1045A00085CB01002DE9F84300200021DFF8942C91
:1045B0001170002232E0DFF8901C0B78DFF88C1CC1
:1045C00009785B1AD2B2D318022B0AD0DFF8781C14
:1045D0000B78DFF8781C09785B1AD2B2D318252B38
:1045E0000CD1DFF86C1CD2B231F91210022391FB0E
:1045F000F3F1DFF85C3CD2B223F81210DFF8501C64
:10460000D2B231F91210884207DADFF8380C0270A2
:10461000DFF83C0CD2B230F91200521CD2B2092A97
:10462000C9DB00200021DFF82C2C1170002232E0C1
:10463000DFF8241C0B78DFF8241C09785B1AD2B24F
:10464000D318022B0AD0DFF8101C0B78DFF80C1CF3
:1046500009785B1AD2B2D318182B0CD1DFF8481C9A
:10466000D2B231F91210022391FBF3F1DFF8383C9A
:10467000D2B223F81210DFF8301CD2B231F9121086
:10468000884207DADFF8CC0B0270DFF81C0CD2B2DC
:1046900030F91200521CD2B2092AC9DBDFF8A80B8C
:1046A0000178DFF8A00B00784118DFF8A00B007844
:1046B000091ADFF8F80B0170DFF89C0B0178DFF8BE
:1046C000940B00784118DFF8940B0078091ADFF892
:1046D000E00B0170DFF86C0B0078401E002807D457
:1046E000DFF8600B0078401E092801D2012000E0AD
:1046F000002000280CD0DFF8580BDFF8481B0978A1
:1047000000EB410030F8020CDFF8A81B088003E042
:104710000020DFF8A01B0880DFF8280B00780928AC
:1047200001D2012000E0002000280AD0DFF8200B91
:10473000DFF8101B097830F81100DFF87C1B0880C7
:1047400003E00020DFF8701B0880DFF8F80A00782B
:10475000401C002807D4DFF8EC0A0078401C092828
:1047600001D2012000E0002000280BD0DFF8E00A91
:10477000DFF8D01A097800EB41004088DFF83C1BD5
:10478000088003E00020DFF8341B0880DFF8C40A4B
:104790000078401E002807D4DFF8B80A0078401ED1
:1047A000092801D2012000E0002000280CD0DFF809
:1047B000F80ADFF8A01A097800EB410030F8020C83
:1047C000DFF8FC1A088003E00020DFF8F41A088004
:1047D000DFF8800A0078092801D2012000E00020DB
:1047E00000280AD0DFF8C00ADFF8681A097830F824
:1047F0001100DFF8D01A088003E00020DFF8C41AA7
:104800000880DFF8500A0078401C002807D4DFF841
:10481000440A0078401C092801D2012000E0002051
:1048200000280BD0DFF8800ADFF8281A097800EB9F
:1048300041004088DFF8901A088003E00020DFF88C
:10484000881A0880DFF86C0AB0F90000002807D544
:10485000DFF8600AB0F900004042DFF8581A08801B
:10486000DFF8540AB0F90000002807D5DFF8480A3D
:10487000B0F900004042DFF8401A0880DFF83C0A37
:10488000B0F90000002807D5DFF8300AB0F90000C1
:104890004042DFF8281A0880DFF8240AB0F9000047
:1048A000002807D5DFF8180AB0F900004042DFF809
:1048B000101A0880DFF80C0AB0F90000002807D5AC
:1048C000DFF8000AB0F900004042DFF8F81908806C
:1048D000DFF8F409B0F90000002807D5DFF8E8098F
:1048E000B0F900004042DFF8E0190880DFF8BC09A9
:1048F000007804282DDADFF84C090078801C0028A5
:1049000007D4DFF840090078801C092801D2012073
:1049100000E00020002809D0DFF83409DFF824196E
:10492000097800EB4100B0F9040000E00020DFF856
:104930008C190C88DFF88019B1F90010081A05F0FD
:10494000F1FE062190FBF1F00419DFF880090480E4
:1049500047E0DFF85809007824282DDBDFF8E40869
:104960000078801E002807D4DFF8D8080078801E61
:10497000092801D2012000E00020002809D0DFF83A
:10498000D008DFF8C018097800EB410030F9040CBA
:1049900000E00020DFF81C190C88DFF81C19B1F9C1
:1049A0000010081A05F0BEFE062190FBF1F0041974
:1049B000DFF81809048014E0DFF8FC080488DFF849
:1049C000F408B0F90000DFF8F418B1F90010401A4B
:1049D00005F0A8FE062190FBF1F00419DFF8EC08C1
:1049E00004800020DFF8E81808800020DFF8E418D1
:1049F0000880002229E0DFF8E008D2B200EB420094
:104A0000B0F90600DFF8C818B1F90010884208DADA
:104A1000DFF8C408D2B200EB4200C088DFF8B0185B
:104A20000880DFF8B408D2B230F91200DFF8A41819
:104A3000B1F90010884207DADFF89C08D2B230F8EA
:104A40001200DFF890180880521CD2B2032AD2DB81
:104A5000002213E0DFF88408D2B230F91200DFF848
:104A60007418B1F90010884207DADFF87008D2B282
:104A700030F81200DFF85C180880521CD2B2DFF860
:104A8000C4070078801E8242E4DBDFF8B8070278B2
:104A9000921C13E0DFF84408D2B230F91200DFF8BC
:104AA0003018B1F90010884207DADFF83008D2B2C6
:104AB00030F81200DFF818180880521CD2B2092A08
:104AC000E8DBDFF88407007804280CDADFF8100848
:104AD0000088B0F5F06F18DADFF8FC070089DFF81E
:104AE000F017088011E0DFF86007007824280CDB5D
:104AF000DFF8EC07008845F60121884205DBDFF886
:104B0000D8074088DFF8CC170880DFF8C407B0F971
:104B100000004042DFF8B8170880DFF8B807B0F9A6
:104B200000004042DFF8AC170880DFF88407007807
:104B300004282DDADFF81C070078801C002807D431
:104B4000DFF810070078801C092801D2012000E05E
:104B50000020002809D0DFF85007DFF8F8160978A0
:104B600000EB4100B0F9040000E00020DFF8581726
:104B70000C88DFF85017B1F90010081A05F0D2FDC3
:104B8000062190FBF1F00419DFF85807048047E094
:104B9000DFF81C07007817282DDBDFF8B80600784F
:104BA000801E002807D4DFF8AC060078801E092894
:104BB00001D2012000E00020002809D0DFF8E8063B
:104BC000DFF89016097800EB410030F9040C00E0A2
:104BD0000020DFF8EC160C88DFF8E816B1F90010B9
:104BE000081A05F09FFD062190FBF1F00419DFF88B
:104BF000F406048014E0DFF8CC060488DFF8C00671
:104C0000B0F90000DFF8C016B1F90010401A05F045
:104C100089FD062190FBF1F00419DFF8C806048035
:104C20000020DFF8C41608800020DFF8C0160880D6
:104C3000002229E0DFF8B806D2B200EB4200B0F95A
:104C40000600DFF8A416B1F90010884208DADFF890
:104C5000A006D2B200EB4200C088DFF88C160880B4
:104C6000DFF88C06D2B230F91200DFF88016B1F905
:104C70000010884207DADFF87806D2B230F8120066
:104C8000DFF868160880521CD2B2032AD2DB002259
:104C900013E0DFF86006D2B230F91200DFF84C16EC
:104CA000B1F90010884207DADFF84806D2B230F8CE
:104CB0001200DFF838160880521CD2B2DFF89405D3
:104CC0000078801E8242E4DBDFF888050278921CBF
:104CD00013E0DFF82006D2B230F91200DFF8081630
:104CE000B1F90010884207DADFF80806D2B230F8CE
:104CF0001200DFF8F4150880521CD2B2092AE8DB52
:104D0000DFF85405007804280CDADFF8EC05008899
:104D1000B0F5F06F18DADFF8D8050089DFF8C815AC
:104D2000088011E0DFF83005007817280CDBDFF889
:104D3000C805008843F68111884205DBDFF8B0051D
:104D40004088DFF8A8150880DFF89C05B0F900005E
:104D50004042DFF894150880DFF89005B0F90000B4
:104D60004042DFF888150880DFF8F40C90F9000065
:104D7000032801DA012415E0DFF8E80C90F90000BF
:104D8000801C252801DB00240CE0DFF84805B0F981
:104D90000000DFF83C15B1F90010884201DA032465
:104DA00000E00224DFF8C00C90F90000032801DACB
:104DB000012515E0DFF8B40C90F90000801C1828DC
:104DC00001DB00250CE0DFF82405B0F90000DFF876
:104DD0001815B1F90010884201DA032500E0022518
:104DE000DFF8C8040078032809D1DFF8840C0088B4
:104DF000B0F5F06F01DA002072E0012070E0DFF81A
:104E0000AC040078042809D1DFF8640C0088B0F500
:104E1000206F01DA022063E0032061E0DFF88C04F8
:104E20000078052809D1DFF8480C0088B0F5486FF4
:104E300001DA042054E0052052E0DFF87004007825
:104E4000062809D1DFF8280C0088B0F5706F01DA68
:104E5000062045E0072043E0DFF8500400782428CE
:104E60000AD1DFF80C0C008845F60121884201DBED
:104E7000292035E0282033E0DFF8300400782328AB
:104E80000AD1DFF8EC0B008845F28171884201DB22
:104E9000272025E0262023E0DFF8100400782228D0
:104EA0000AD1DFF8CC0B008845F20151884201DBC2
:104EB000252015E0242013E0DFF8F00300782128F6
:104EC0000AD1DFF8AC0B008845F28121884201DB72
:104ED000232005E0222003E0DFF8D0030078401C07
:104EE000C0B2082800DA0124C0B2222800DB002466
:104EF000DFF8BC130978032909D1DFF8781B09888A
:104F0000B1F5F06F01DA00216EE001216CE0DFF80D
:104F1000A0130978042909D1DFF8581B0988B1F5D5
:104F2000206F01DA02215FE003215DE0DFF88013EA
:104F30000978052909D1DFF83C1B0988B1F5486FCC
:104F400001DA042150E005214EE0DFF8641309780E
:104F5000062909D1DFF81C1B0988B1F5706F01DA49
:104F6000062141E007213FE0DFF8441309781729C3
:104F70000AD1DFF8001B098843F68112914201DB58
:104F80001C2131E01B212FE0C949097816290AD1DB
:104F9000DFF8E01A098843F20172914201DB1A211D
:104FA00022E0192120E0C249097815290AD1DFF849
:104FB000C41A098843F28142914201DB182113E0AF
:104FC000172111E0BA49097814290AD1DFF8A41A87
:104FD000098843F20122914201DB162104E01521E8
:104FE00002E0B3490978491CC9B2082900DA012551
:104FF000C9B2152900DB002564B2012C02D064B2CD
:10500000032C1CD1C9B22426C0B206FB0106DFF86E
:10501000302DB6B2935DDFF82C2D138064B2032CD3
:1050200029D1C9B22422C0B202FB0102961FDFF8C7
:10503000182DB6B2925DDFF8146D32801BE0C9B254
:105040002422C0B202FB0102961FDFF8FC2CB6B28C
:10505000935DDFF8F82C138064B2022C0BD1C9B237
:105060002426C0B206FB0106DFF8D42CB6B2925D4E
:10507000DFF8D06C32806DB2012D02D06DB2032DFD
:105080001DD1C9B22A26C0B206FB0106DFF8C02C2A
:10509000B6B2925DDFF8BC6C32806DB2032D2BD1BD
:1050A0000E00F6B2B61F2A21C0B201FB0606DFF8D9
:1050B000A80CB6B2805DDFF8A41C08801CE0C9B261
:1050C0008E1F2A22C0B202FB0606DFF88C2CB6B275
:1050D000925DDFF8886C32806DB2022D0CD10E002B
:1050E000F6B22A21C0B201FB0606DFF8640CB6B2A4
:1050F000805DDFF8601C0880DFF8640CB0F9000008
:10510000002840F00281DFF868090088B0F5A06F40
:1051100001DA002134E0DFF858090088B0F58C5F2F
:105120000DDADFF8400C0088DFF844190988B1F582
:10513000A06148434FF4486190FBF1F120E0DFF8B3
:105140003009008845F68141884201DB002117E0E3
:10515000DFF81C09008845F2010188420DDBDFF809
:10516000040C0088DFF808190988D1F5B9414843D3
:105170004FF4486190FBF1F102E0DFF8E80B0188A1
:1051800064B2022C02D064B2032C19D1DFF8B40B44
:1051900006884020464389B211F1400096FBF0F0AA
:1051A000DFF8A06B3080DFF8A40B06884020464370
:1051B00089B2403196FBF1F0DFF8901B088006E0E1
:1051C0009BB24020434389B2403193FBF1F3DFF8B7
:1051D000A4080088B0F5A06F01DA002143E0DFF8F1
:1051E00094080088B0F58C5F0DDADFF8780B008842
:1051F000DFF880180988B1F5A06148434FF4486191
:1052000090FBF1F12FE0DFF86C08008843F60141D4
:10521000884201DB002126E0DFF85808008842F6CA
:10522000817188421CDBDFF83C0B0088DFF84418F2
:105230000988D1F5705148434FF4486190FBF1F172
:1052400011E000BF600C00202F0C00202D0C00206E
:1052500050080020610C0020300C00202E0C002093
:10526000DFF8000B01886DB2022D02D06DB2032D64
:1052700044D1DFF8E00A06884020464389B211F1A4
:10528000400096FBF0F0DFF8CC6A3080DFF8CC0A03
:1052900006884020464389B2403196FBF1F0DFF8A2
:1052A000BC1A088031E000BF64080020620C0020B6
:1052B000630C0020C20B0020CA0B0020C40B00208E
:1052C000C60B0020CC0B0020C80B0020AA0B00202E
:1052D000A60B0020A20B002018080020B805002013
:1052E0006C0B0020AC0B0020A80B0020A40B0020AE
:1052F00024080020CC0500206E0B002092B2402034
:10530000424389B2403192FBF1F2DFF85C0A007847
:1053100003284CD1DFF8540AB0F90000DFF8CC1DA7
:10532000B1F900100818002841D0DFF8C40D018839
:10533000DFF8BC0DB0F900607600DFF8300AB0F994
:105340000070DFF8A80DB0F900003F1A7E43DFF8C7
:105350001C0AB0F90070DFF8940DB0F90000C7190D
:1053600096FBF7F04118DFF8880D0180DFF8840D17
:105370000188DFF8800DB0F900607600DFF8EC09F5
:10538000B0F90070DFF8640DB0F900003F1A7E43F9
:10539000DFF8D809B0F90070DFF8500DB0F900005F
:1053A000C71996FBF7F04118DFF8480D0180DFF8C8
:1053B000B809007824284CD1DFF8B009B0F9000012
:1053C000DFF8341DB1F900100818002841D0DFF8CB
:1053D000200D0188DFF8180DB0F900607600DFF8C5
:1053E0008C09B0F90070DFF8100DB0F900003F1A19
:1053F0007E43DFF87809B0F90070DFF8FC0CB0F9F3
:105400000000C71996FBF7F04118DFF8E40C0180A3
:10541000DFF8E00C0188DFF8DC0CB0F90060760002
:10542000DFF84809B0F90070DFF8CC0CB0F90000E3
:105430003F1A7E43DFF83409B0F90070DFF8B80C8A
:10544000B0F90000C71996FBF7F04118DFF8A40C7B
:105450000180DFF8A80C007803284CD1DFF8A00CFD
:10546000B0F90000DFF89C1CB1F900100818002802
:1054700041D0DFF8800C0188DFF8780CB0F90060CB
:105480007600DFF87C0CB0F90070DFF8780CB0F92A
:1054900000003F1A7E43DFF8680CB0F90070DFF8B7
:1054A000640CB0F90000C71996FBF7F04118DFF85B
:1054B000440C0180DFF8380C0188DFF8340CB0F9B7
:1054C00000607600DFF8380CB0F90070DFF8340CBB
:1054D000B0F900003F1A7E43DFF8240CB0F90070E9
:1054E000DFF8200CB0F90000C71996FBF7F041185F
:1054F000DFF8FC0B0180DFF8040C007817284CD192
:10550000DFF8FC0BB0F90000DFF87C1DB1F90010EA
:105510000818002841D0DFF8DC0B0188DFF8D40B35
:10552000B0F900607600DFF8D80BB0F90070DFF852
:10553000580DB0F900003F1A7E43DFF8C40BB0F9F4
:105540000070DFF8440DB0F90000C71996FBF7F0C2
:105550004118DFF8A00B0180DFF8940B0188DFF819
:10556000900BB0F900607600DFF8940BB0F9007092
:10557000DFF8140DB0F900003F1A7E43DFF8800B0E
:10558000B0F90070DFF8000DB0F90000C71996FB04
:10559000F7F04118DFF8580B018064B2022C02D0FA
:1055A00064B2032C35D1DFF8480BB0F90000642158
:1055B00090FBF1F0DFF8441DB1F90030DFF8401D39
:1055C000B1F90010CB1810EB6300002800F0C68082
:1055D000DFF878170988002900F0C080DFF81C1D6B
:1055E000B1F90030DFF8181DB1F90060DFF8541789
:1055F00009884E43DFF85417098896FBF1F109B288
:105600005B1A80214B4393FBF0F0DFF8F81C088015
:10561000A4E064B2012C02D064B2032C4ED1DFF8B6
:10562000D00AB0F90000642190FBF1F0DFF8CC1C47
:10563000B1F900100818002815D0DFF8C01CB1F926
:105640000010DFF8AC6AB6F900609BB203FB06F30A
:105650001B121BB2CB1A4FF480714B4393FBF0F03B
:10566000DFF8A01C0880DFF89C0CB0F900000028CF
:105670000CD5DFF8900CB0F90010494206204143E8
:10568000C9104942DFF87C0C018009E0DFF8740C96
:10569000B0F900100A204143C910DFF8680C0180FE
:1056A00064B2032C5AD1DFF85C0CB0F9000000287A
:1056B00054D50020DFF84C1C08804FE0DFF8300A9A
:1056C000B0F90000642190FBF1F0DFF8341CB1F96F
:1056D00000100818002817D0DFF8241CB1F90010BA
:1056E000DFF80C6AB6F900609BB203FB06F31B12ED
:1056F0001BB2CB1A4FF480714B4393FBF0F000B216
:105700004042DFF8001C0880DFF8F80BB0F9000019
:1057100001280ADBDFF8EC0BB0F90010062041434A
:10572000C910DFF8E00B01800BE0DFF8D80BB0F90F
:10573000001049420A204143C9104942DFF8C40B16
:10574000018064B2022C09D1DFF8B80BB0F9000077
:10575000012803DB0020DFF8AC1B08806DB2022DAE
:1057600002D06DB2032D35D1DFF88809B0F9000001
:10577000642190FBF1F0DFF8CC1CB1F90020DFF8D8
:10578000C81CB1F900108A1810EB6200002800F064
:10579000C680DFF8C8150988002900F0C080DFF84E
:1057A000A41CB1F90020DFF8A01CB1F90030DFF82B
:1057B000A41509884B43DFF8A415098893FBF1F180
:1057C00009B2521A80214A4392FBF0F0DFF87C1CA8
:1057D0000880A4E06DB2012D02D06DB2032D4ED130
:1057E000DFF81009B0F90000642190FBF1F0DFF858
:1057F000541CB1F900100818002815D0DFF8441C1B
:10580000B1F90010DFF8EC38B3F9003092B202FBC6
:1058100003F2121212B28A1A4FF480714A4392FBB9
:10582000F0F0DFF8281C0880DFF8200CB0F9000049
:1058300000280CD5DFF8140CB0F9001049420620FE
:105840004143C9104942DFF8040C018009E0DFF848
:10585000FC0BB0F900100A204143C910DFF8EC0B33
:1058600001806DB2032D5AD1DFF8E00BB0F90000D2
:10587000002854D50020DFF8D41B08804FE0DFF863
:105880007408B0F90000642190FBF1F0DFF8B81B58
:10589000B1F900100818002817D0DFF8AC1BB1F9D7
:1058A0000010DFF85038B3F9003092B202FB03F277
:1058B000121212B28A1A4FF480714A4392FBF0F02E
:1058C00000B24042DFF8841B0880DFF8800BB0F99B
:1058D000000001280ADBDFF8740BB0F90010062085
:1058E0004143C910DFF8640B01800BE0DFF85C0B6B
:1058F000B0F9001049420A204143C9104942DFF87B
:105900004C0B01806DB2022D09D1DFF8400BB0F9CC
:105910000000012803DB0020DFF8301B0880DFF8DF
:10592000E409B0F90000012806DBDFF8D809008897
:10593000DFF8D019088010E0DFF8C809B0F90000DE
:10594000012804DB0020DFF8BC19088005E0DFF83F
:10595000B4090088DFF8AC190880DFF8F00AB0F964
:105960000000012806DBDFF8E40A0088DFF8DC1A13
:10597000088010E0DFF8D40AB0F90000012804DB49
:105980000020DFF8C81A088005E0DFF8C00A0088A8
:10599000DFF8B81A088036480088B0F5F06F0DDAE5
:1059A000DFF86009B0F9000031490988D1F5F061EC
:1059B000B0EBD110DFF84C19088013E02C480088B8
:1059C00045F6012188420DDBDFF83809B0F9000007
:1059D00027490988B1F5B441490010EBD110DFF82F
:1059E0002419088022480088B0F5DC6F0DDADFF852
:1059F0001409B0F900001E490988D1F5DC61C9001D
:105A0000B0EBD110DFF8FC1808801948008845F683
:105A1000A12188420FDBDFF8EC08B0F90010144830
:105A20000288DFF8F80B82181820424311EBD211DC
:105A3000DFF8D00801800F480088B0F5F06F1BDA5E
:105A4000DFF8080AB0F900100A480288D2F5F062BF
:105A500009204243B1EBD211DFF8F009018022E0C6
:105A6000580C0020590C00205A0C00205B0C002020
:105A70007E0B0020800B0020DFF8A40B008843F68B
:105A8000811188420FDBDFF8C409B0F90010DFF89C
:105A9000900B0288B2F566520A20424311EBD211F4
:105AA000DFF8A8090180DFF8780B0088B0F5DC6F1B
:105AB0000FDADFF89809B0F90010DFF8640B0288FC
:105AC000D2F5DC6218204243B1EBD211DFF87C0939
:105AD0000180DFF84C0B008843F62121884210DB5F
:105AE000DFF86809B0F90010DFF8340B0288DFF83E
:105AF000340B82181C20424311EBD211DFF84C0901
:105B0000018000275FF000080026002164B2002C0D
:105B100057D1DFF8F007B0F9006036B2002E00D59B
:105B2000002636B27FF027004643902096FBF0F126
:105B30002831DFF8440D0288DFF8400D06784FF475
:105B4000207000FB1626DFF8300D008845F6012294
:105B5000904225DA36B2012E16DB36B2B6F5A07FBA
:105B600009DA09B236B2D6F5A07041434FF420707D
:105B700091FBF0F0C71936B2002046434FF4207075
:105B800096FBF0F0C7190DE109B236B216F5A07612
:105B900006FB01F64FF4207096FBF0F0C71901E107
:105BA00036B2012EC0F2FE80380009B236B2D6F508
:105BB000A07606FB01F64FF4207196FBF1F7C71BA8
:105BC000F0E064B2012C5AD1DFF83807B0F9006078
:105BD000764236B2002E00D5002636B27FF027007E
:105BE0004643902096FBF0F12831DFF88C0C0288B8
:105BF000DFF8880C06784FF4207000FB1626DFF8DB
:105C0000780C0088B0F5F06F29DB36B2012E19DA76
:105C100036B2B6F5A07F0ADA3A0009B236B216F506
:105C2000A07041434FF4207091FBF0F7D71B39006F
:105C300036B27642002046434FF4207096FBF0F7D0
:105C4000CF1BAFE0380009B236B2D6F5A07606FB1E
:105C500001F64FF4207196FBF1F7C71BA2E036B2B4
:105C6000012E80F29F8009B236B216F5A07606FBAF
:105C700001F64FF4207096FBF0F0C71992E064B281
:105C8000022C03D064B2032C40F08C800026DFF895
:105C900090090088B0F5B45F13DADFF8B007B0F907
:105CA0000000002827D5300000B2DFF874190988F9
:105CB000D1F5B45148434FF4B45190FBF1F0361A8A
:105CC00019E0DFF85C09008842F68121884212DB86
:105CD000DFF87807B0F9000001280CDB300000B2D3
:105CE000DFF83C190988B1F52A5148434FF4B45103
:105CF00090FBF1F0361A36B2DFF85007B0F9000029
:105D000004F010FD4643902096FBF0F1DFF8680B9D
:105D10000288DFF8680B06784FF4207000FB162627
:105D200036B2A12E24DB380009B236B2D6F5A07601
:105D300006FB01F64FF4207196FBF1F7C71B31E02B
:105D4000CDB50100E60B0020E1B90100E80B002011
:105D5000F5BD0100EA0B0020BBC10100EC0B0020E7
:105D6000700B0020D40B0020620C0020CA0B002016
:105D700036B216F1A00F0BDA09B236B216F5A076DC
:105D800006FB01F64FF4207096FBF0F0C71909E00E
:105D9000380009B236B206FB01F64FF4207196FBCB
:105DA000F1F7C71B6DB2002D40F0FE80DFF89C06B6
:105DB000B0F9006036B2002E00D5002636B20A20B7
:105DC0004643902096FBF0F11E31DFF8540802881C
:105DD000DFF8AC0A06784FF4207000FB1626DFF8D7
:105DE0004008008843F68112904228DA36B2012E2C
:105DF00018DB36B2B6F5A07F0ADA09B236B2D6F5AC
:105E0000A07041434FF4207091FBF0F010EB0808B4
:105E100036B2002046434FF4207096FBF0F010EBB2
:105E200008081CE009B236B216F5A07606FB01F6AA
:105E30004FF4207096FBF0F010EB08080FE036B23C
:105E4000012E0CDB404609B236B2D6F5A07606FB31
:105E500001F64FF4207196FBF1F8B0EB0808DFF87B
:105E6000A404B0F9000004F05DFC0600DFF8DC05D6
:105E7000B0F9000004F056FC361A36B2002E00D5F8
:105E8000002636B27FF027004643802096FBF0F1D3
:105E9000DFF88C070288DFF8E80906784FF42070F5
:105EA00000FB1626DFF87807008843F6410290428F
:105EB00025DADFF86C070088B0F5485F1FDBDFF8F4
:105EC0006007008843F6E10290420ADB424609B2CD
:105ED000A02041434FF4207091FBF0F8B2EB08088A
:105EE0000DE036B2361EB6F5A07F08D209B2A0206A
:105EF00041434FF4207091FBF0F010EB0808DFF8FD
:105F00000404B0F9000004F00DFC8146DFF83C0504
:105F1000B0F9000004F006FC0600B9EB060636B244
:105F2000002E00D5002636B232204643802096FB54
:105F3000F0F1DFF8EC06B0F9000043F6E002861A53
:105F400036B2012EC0F2BE81DFF82C09028841F280
:105F50004100121A44F2FF00824280F0B381DFF860
:105F6000A403B0F90000012809DB09B236B206FB30
:105F700001F04FF4207290FBF2F03F1A08E009B2F2
:105F800036B206FB01F04FF4207290FBF2F0C71915
:105F9000404609B236B206FB01F64FF4A06196FB0B
:105FA000F1F8B0EB08088DE16DB2012D40F00E81E3
:105FB000DFF89804B0F90060764236B2002E00D5C2
:105FC000002636B20A204643902096FBF0F11E319F
:105FD000DFF84C060288DFF8A80806784FF4207036
:105FE00000FB1626DFF838060088B0F5F06F2CDBD2
:105FF00036B2012E1BDA36B2B6F5A07F0BDA424676
:1060000009B236B216F5A07041434FF4207091FBEF
:10601000F0F8B2EB0808414636B27642002046431B
:106020004FF4207096FBF0F8B1EB08081CE04046F6
:1060300009B236B2D6F5A07606FB01F64FF4207110
:1060400096FBF1F8B0EB08080EE036B2012E0BDA41
:1060500009B236B216F5A07606FB01F64FF42070B1
:1060600096FBF0F010EB0808A648B0F9000004F029
:1060700059FB8146DFF8D403B0F9000004F052FB6D
:106080000600B9EB060636B2002E00D5002636B261
:106090007FF027004643802096FBF0F1DFF8800573
:1060A0000288DFF8DC0706784FF4207000FB162624
:1060B000DFF86C05008840F6C102904234DBDFF85F
:1060C00060050088B0F5706F2EDADFF8540500889F
:1060D00040F62102904217DA09B2A02041434FF462
:1060E000207091FBF0F010EB08081DE0C40B0020BD
:1060F000AA0B0020AC0B0020C20B0020630C002078
:10610000CC0B0020C80B002036B206F23F16B6F5C5
:10611000A07F09D2424609B2A02041434FF420702B
:1061200091FBF0F8B2EB08087648B0F9000004F0F3
:10613000F9FA0600C548B0F9000004F0F3FA361A7F
:1061400036B2002E00D5002636B2322046438020DB
:1061500096FBF0F1DFF8C804B0F90060D6F50266EE
:10616000DFF8BC04008840F62102904280F2AA8049
:10617000DFF80407028841F24100121A44F2FF00DE
:10618000824280F09F805F48B0F90000012809DB5F
:1061900009B236B206FB01F04FF4207290FBF2F028
:1061A0003F1A08E009B236B206FB01F04FF4207244
:1061B00090FBF2F0C71909B236B206FB01F64FF4B4
:1061C000A06096FBF0F010EB08087BE06DB2022DAA
:1061D00002D06DB2032D75D10026DFF89C06008831
:1061E000B0F5B45F12DA4748B0F90000002826D5B0
:1061F000300000B2DFF880160988D1F5B451484369
:106200004FF4B45190FBF1F0361A18E0DFF868064D
:10621000008844F60131884211DB3A48B0F90000A9
:1062200001280CDB300000B2DFF84C160988B1F50C
:10623000964148434FF4B45190FBF1F0361A36B210
:106240003048B0F9000004F06DFA4643902096FB08
:10625000F0F1DFF8CC030288DFF8240606784FF46B
:10626000207000FB162636B2A12E0FDB404609B285
:1062700036B2D6F5A07606FB01F64FF4207196FBF8
:10628000F1F8B0EB08081DE0C60B002036B216F19D
:10629000A00F0CDA09B236B216F5A07606FB01F6AD
:1062A0004FF4207096FBF0F010EB08080AE040462F
:1062B00009B236B206FB01F64FF4207196FBF1F8F5
:1062C000B0EB08080F48B0F9000004F02BFA060004
:1062D0005E48B0F9000004F025FA361A36B2012EF5
:1062E00019DB0848B0F9000001280DDB3FB236B2D7
:1062F0001920464317EB262723E000BFA60B0020FA
:10630000A20B0020AE0B00203FB236B2192046434C
:10631000B7EB262715E04D48B0F90000012808DB4F
:106320000FFA88F836B276421920464318EB262831
:1063300007E00FFA88F836B2764219204643B8EBE8
:106340002628DFF8D00C00883F18DFF8C80C07803B
:106350003E48008818EB00083C48A0F80080002662
:10636000002700206DB2012D40F0E58064B2012CC1
:106370006ED1AB480088B0F5825F2BDA3348B0F9B4
:106380000000002826D5DFF88C0CB0F9000004F0DE
:10639000C9F940102D49B1F90010C8421ADAA048D5
:1063A000B0F80080D8F582582848B0F90090D9F1AB
:1063B0000009DFF8600CB0F9000004F0B3F9B9EBA4
:1063C00000095FEA690908FB09F84FF4206098FBAF
:1063D000F0F08619DFF8A0040088B0F5825F80F243
:1063E0009081DFF8300CB0F90000002840F189817D
:1063F0001648B0F9000004F095F94010DFF8141CBD
:10640000B1F90010C84280F27C81DFF86C04B0F86A
:106410000080D8F58258DFF8FC0BB0F90090D9F174
:1064200000090A48B0F9000004F07CF9B9EB000952
:106430005FEA690908FB09F84FF4206098FBF0F067
:10644000C7195EE1A80B0020A40B0020B00B0020B0
:1064500064B2002C40F0558171480088B0F5825F2D
:106460002EDADFF8B40BB0F90000002828D5DFF8E9
:10647000A40BB0F9000004F055F94010DFF8981BA8
:10648000B1F90010C8421BDA6548B0F80080D8F5B1
:106490008258DFF8840BB0F90090D9F10009DFF8D9
:1064A000740BB0F9000004F03DF9B9EB00095FEAA4
:1064B000690908FB09F84FF4206098FBF0F0361AE0
:1064C000DFF8B403008845F241118842C0F2198117
:1064D000DFF8400BB0F900000128C0F21281DFF8AC
:1064E000380BB0F9000004F01DF94010DFF8241B50
:1064F000B1F90010884280F20481DFF87C03B0F823
:106500000080DFF8180B10EB0808DFF8080BB0F973
:106510000090DFF8040BB0F9000004F003F9B9EBC8
:1065200000095FEA690908FB09F84FF4206098FB4D
:10653000F0F0C719E5E06DB2002D40F0E28064B2E2
:10654000012C71D13648008843F2C10188422CDB0E
:10655000DFF8C40AB0F90000012826DBDFF8B40A2E
:10656000B0F9000004F0DEF84010DFF8AC1AB1F921
:106570000010884219DA2A48B0F80080B8F543586C
:10658000DFF8940AB0F90090DFF8880AB0F900004B
:1065900004F0C8F8B9EB00095FEA690908FB09F8DB
:1065A0004FF4206098FBF0F08619B3480088B0F5EE
:1065B000825F80F2A680DFF85C0AB0F90000002854
:1065C00040F19F80DFF8500AB0F9000004F0AAF80B
:1065D0004010DFF8401AB1F90010C84280F29180F3
:1065E000A548B0F80080D8F58258DFF8280AB0F93D
:1065F0000090D9F10009DFF8200AB0F9000004F09A
:1066000091F8B9EB00095FEA690908FB09F84FF452
:10661000206098FBF0F03F1A73E000BF60A5FFFF19
:10662000800B0020E0C5FFFF64B2002C69D1DFF8C9
:10663000F009008843F2C10188422DDBDFF8D80958
:10664000B0F90000012827DBDFF8C809B0F9000025
:1066500004F068F84010DFF8C019B1F90010884262
:106660001ADADFF8BC09B0F80080B8F54358DFF853
:10667000A809B0F90090DFF89C09B0F9000004F017
:1066800051F8B9EB00095FEA690908FB09F84FF412
:10669000206098FBF0F0361A7748008845F24111E7
:1066A00088422EDBDFF86C09B0F90000012828DBF6
:1066B000DFF86409B0F9000004F034F84010DFF8A6
:1066C0005419B1F9001088421BDA6B48B0F8008009
:1066D000DFF8480910EB0808DFF83809B0F9009036
:1066E000DFF83409B0F9000004F01CF8B9EB000938
:1066F0005FEA690908FB09F84FF4206098FBF0F0A5
:106700003F1A5D480088B0F5486F72DADFF8040977
:10671000B0F9000000284BD536B2DFF8F808B0F920
:106720000010494254480088D0F5486041430E208B
:106730004143B6EB5136DFF8E008B0F9000000281D
:1067400011D56DB2012D1ED03FB2DFF8CC08B0F9E3
:106750000000404248490988D1F54861484380001B
:10676000B7EB50370FE06DB2002D0CD03FB2DFF821
:10677000A808B0F9000040490988D1F548614843AC
:10678000800017EB50373C480088B0F5F06F80F27E
:106790009D8036B2DFF87C08B0F9001036480088DA
:1067A000D0F5F06041431420414316EB51368DE0A3
:1067B00036B2DFF86008B0F900102F480088D0F535
:1067C000486041430520414316EB51362A48008872
:1067D000B0F5F06F7ADA36B2DFF83808B0F90000B9
:1067E00025490988D1F5F0614843400016EB503641
:1067F0006CE02148008845F20151884266DBDFF8F1
:106800001408B0F9000001283CDB36B2DFF80408B8
:10681000B0F9001018480088B0F5AA4041430A209A
:10682000414316EB5136DFF8F007B0F900000028BD
:1068300011D56DB2012D49D03FB2DFF8DC07B0F9B8
:10684000000040420C490988B1F5AA414843800044
:10685000B7EB50373AE06DB2002D37D03FB2DFF8DA
:10686000B807B0F9000004490988B1F5AA414843C6
:10687000800017EB503729E07E0B00202F0C002002
:10688000300C002036B2DFF88C07B0F9000040422F
:10689000DFF8501C0988B1F5AA414843B6EB5036E1
:1068A000DFF8400C008845F6012188420EDB36B245
:1068B000DFF86007B0F900004042DFF8281C0988C3
:1068C000B1F5B44148434001B6EB5036DFF850070C
:1068D0000088B0F5486F64DADFF83C07B0F90000D3
:1068E00000283BD53FB2DFF83007B0F90000404246
:1068F000DFF82C170988D1F5486148438000B7EBD1
:106900005037DFF81007B0F90000002813D564B243
:10691000012C00F0B18036B2DFF8F806B0F90000C3
:106920004042DFF8FC160988D1F5486148438000F1
:10693000B6EB5036A0E064B2002C00F09D8036B279
:10694000DFF8D006B0F90000DFF8D4160988D1F5D9
:1069500048614843800016EB50368DE03FB2DFF8C7
:10696000B806B0F90000DFF8B8160988D1F548611B
:10697000484317EB5037DFF8A8060088B0F5F06FF2
:106980007ADA3FB2DFF89006B0F90010DFF890062F
:106990000088D0F5F06041432A20414317EB51377E
:1069A0006AE0DFF87C06008843F28141884263DBBD
:1069B000DFF86406B0F90000012838DB3FB2DFF8E9
:1069C0005806B0F90000DFF858160988B1F55251A1
:1069D0004843800017EB5037DFF83806B0F9000065
:1069E000002812D564B2012C46D036B2DFF8240656
:1069F000B0F900004042DFF828160988B1F552517D
:106A000048438000B6EB503636E064B2002C33D0F9
:106A100036B2DFF80006B0F90000DFF80416098886
:106A2000B1F552514843800016EB503624E03FB296
:106A3000DFF8E405B0F900004042DFF8E41509880A
:106A4000B1F552514843B7EB5037DFF8D405008811
:106A500043F6811188420FDB3FB2DFF8BC05B0F985
:106A600000104942DFF8B8050088B0F56650414390
